{
  "contractName": "Dex",
  "abi": [
    {
      "anonymous": false,
      "inputs": [
        {
          "indexed": true,
          "internalType": "address",
          "name": "previousOwner",
          "type": "address"
        },
        {
          "indexed": true,
          "internalType": "address",
          "name": "newOwner",
          "type": "address"
        }
      ],
      "name": "OwnershipTransferred",
      "type": "event"
    },
    {
      "inputs": [
        {
          "internalType": "bytes32",
          "name": "ticker",
          "type": "bytes32"
        },
        {
          "internalType": "address",
          "name": "tokenAddress",
          "type": "address"
        }
      ],
      "name": "addToken",
      "outputs": [],
      "stateMutability": "nonpayable",
      "type": "function"
    },
    {
      "inputs": [
        {
          "internalType": "address",
          "name": "",
          "type": "address"
        },
        {
          "internalType": "bytes32",
          "name": "",
          "type": "bytes32"
        }
      ],
      "name": "balances",
      "outputs": [
        {
          "internalType": "uint256",
          "name": "",
          "type": "uint256"
        }
      ],
      "stateMutability": "view",
      "type": "function",
      "constant": true
    },
    {
      "inputs": [
        {
          "internalType": "uint256",
          "name": "amount",
          "type": "uint256"
        },
        {
          "internalType": "bytes32",
          "name": "ticker",
          "type": "bytes32"
        }
      ],
      "name": "deposit",
      "outputs": [],
      "stateMutability": "nonpayable",
      "type": "function"
    },
    {
      "inputs": [],
      "name": "depositEth",
      "outputs": [],
      "stateMutability": "payable",
      "type": "function",
      "payable": true
    },
    {
      "inputs": [],
      "name": "nextOrderId",
      "outputs": [
        {
          "internalType": "uint256",
          "name": "",
          "type": "uint256"
        }
      ],
      "stateMutability": "view",
      "type": "function",
      "constant": true
    },
    {
      "inputs": [
        {
          "internalType": "bytes32",
          "name": "",
          "type": "bytes32"
        },
        {
          "internalType": "uint256",
          "name": "",
          "type": "uint256"
        },
        {
          "internalType": "uint256",
          "name": "",
          "type": "uint256"
        }
      ],
      "name": "orderBook",
      "outputs": [
        {
          "internalType": "uint256",
          "name": "id",
          "type": "uint256"
        },
        {
          "internalType": "address",
          "name": "trader",
          "type": "address"
        },
        {
          "internalType": "enum Dex.Side",
          "name": "side",
          "type": "uint8"
        },
        {
          "internalType": "bytes32",
          "name": "ticker",
          "type": "bytes32"
        },
        {
          "internalType": "uint256",
          "name": "amount",
          "type": "uint256"
        },
        {
          "internalType": "uint256",
          "name": "price",
          "type": "uint256"
        },
        {
          "internalType": "uint256",
          "name": "filled",
          "type": "uint256"
        }
      ],
      "stateMutability": "view",
      "type": "function",
      "constant": true
    },
    {
      "inputs": [],
      "name": "owner",
      "outputs": [
        {
          "internalType": "address",
          "name": "",
          "type": "address"
        }
      ],
      "stateMutability": "view",
      "type": "function",
      "constant": true
    },
    {
      "inputs": [],
      "name": "renounceOwnership",
      "outputs": [],
      "stateMutability": "nonpayable",
      "type": "function"
    },
    {
      "inputs": [
        {
          "internalType": "uint256",
          "name": "",
          "type": "uint256"
        }
      ],
      "name": "tokenList",
      "outputs": [
        {
          "internalType": "bytes32",
          "name": "",
          "type": "bytes32"
        }
      ],
      "stateMutability": "view",
      "type": "function",
      "constant": true
    },
    {
      "inputs": [
        {
          "internalType": "bytes32",
          "name": "",
          "type": "bytes32"
        }
      ],
      "name": "tokenMapping",
      "outputs": [
        {
          "internalType": "bytes32",
          "name": "ticker",
          "type": "bytes32"
        },
        {
          "internalType": "address",
          "name": "tokenAddress",
          "type": "address"
        }
      ],
      "stateMutability": "view",
      "type": "function",
      "constant": true
    },
    {
      "inputs": [
        {
          "internalType": "address",
          "name": "newOwner",
          "type": "address"
        }
      ],
      "name": "transferOwnership",
      "outputs": [],
      "stateMutability": "nonpayable",
      "type": "function"
    },
    {
      "inputs": [
        {
          "internalType": "uint256",
          "name": "amount",
          "type": "uint256"
        },
        {
          "internalType": "bytes32",
          "name": "ticker",
          "type": "bytes32"
        }
      ],
      "name": "withdraw",
      "outputs": [],
      "stateMutability": "nonpayable",
      "type": "function"
    },
    {
      "inputs": [
        {
          "internalType": "uint256",
          "name": "amount",
          "type": "uint256"
        }
      ],
      "name": "withdrawETH",
      "outputs": [],
      "stateMutability": "nonpayable",
      "type": "function"
    },
    {
      "inputs": [
        {
          "internalType": "bytes32",
          "name": "ticker",
          "type": "bytes32"
        },
        {
          "internalType": "enum Dex.Side",
          "name": "side",
          "type": "uint8"
        }
      ],
      "name": "getOrderBook",
      "outputs": [
        {
          "components": [
            {
              "internalType": "uint256",
              "name": "id",
              "type": "uint256"
            },
            {
              "internalType": "address",
              "name": "trader",
              "type": "address"
            },
            {
              "internalType": "enum Dex.Side",
              "name": "side",
              "type": "uint8"
            },
            {
              "internalType": "bytes32",
              "name": "ticker",
              "type": "bytes32"
            },
            {
              "internalType": "uint256",
              "name": "amount",
              "type": "uint256"
            },
            {
              "internalType": "uint256",
              "name": "price",
              "type": "uint256"
            },
            {
              "internalType": "uint256",
              "name": "filled",
              "type": "uint256"
            }
          ],
          "internalType": "struct Dex.Order[]",
          "name": "",
          "type": "tuple[]"
        }
      ],
      "stateMutability": "view",
      "type": "function",
      "constant": true
    },
    {
      "inputs": [
        {
          "internalType": "enum Dex.Side",
          "name": "side",
          "type": "uint8"
        },
        {
          "internalType": "bytes32",
          "name": "ticker",
          "type": "bytes32"
        },
        {
          "internalType": "uint256",
          "name": "amount",
          "type": "uint256"
        },
        {
          "internalType": "uint256",
          "name": "price",
          "type": "uint256"
        }
      ],
      "name": "createLimitOrder",
      "outputs": [],
      "stateMutability": "nonpayable",
      "type": "function"
    },
    {
      "inputs": [
        {
          "internalType": "enum Dex.Side",
          "name": "side",
          "type": "uint8"
        },
        {
          "internalType": "bytes32",
          "name": "ticker",
          "type": "bytes32"
        },
        {
          "internalType": "uint256",
          "name": "amount",
          "type": "uint256"
        }
      ],
      "name": "createMarketOrder",
      "outputs": [],
      "stateMutability": "nonpayable",
      "type": "function"
    }
  ],
  "bytecode": "0x608060405260006004553480156200001657600080fd5b50620000376200002b6200003d60201b60201c565b6200004560201b60201c565b62000109565b600033905090565b60008060009054906101000a900473ffffffffffffffffffffffffffffffffffffffff169050816000806101000a81548173ffffffffffffffffffffffffffffffffffffffff021916908373ffffffffffffffffffffffffffffffffffffffff1602179055508173ffffffffffffffffffffffffffffffffffffffff168173ffffffffffffffffffffffffffffffffffffffff167f8be0079c531659141344cd1fd0a4f28419497f9722a3daafe3b4186f6b6457e060405160405180910390a35050565b613f2880620001196000396000f3fe6080604052600436106100f35760003560e01c80639776aacf1161008a578063ba58ea6811610059578063ba58ea681461030e578063c9630cb01461034b578063f14210a614610374578063f2fde38b1461039d576100f3565b80639776aacf1461025657806399ec2f1c1461027f5780639ead7222146102a8578063a8d2021a146102e5576100f3565b8063667cb4ba116100c6578063667cb4ba146101ad5780636f3b62f9146101eb578063715018a6146102145780638da5cb5b1461022b576100f3565b80630bb431b6146100f85780631f14df691461013b5780632a58b33014610178578063439370b1146101a3575b600080fd5b34801561010457600080fd5b5061011f600480360381019061011a919061356f565b6103c6565b6040516101329796959493929190613b82565b60405180910390f35b34801561014757600080fd5b50610162600480360381019061015d9190613469565b61045f565b60405161016f9190613b67565b60405180910390f35b34801561018457600080fd5b5061018d610484565b60405161019a9190613b67565b60405180910390f35b6101ab61048a565b005b3480156101b957600080fd5b506101d460048036038101906101cf91906134ce565b610583565b6040516101e2929190613a9e565b60405180910390f35b3480156101f757600080fd5b50610212600480360381019061020d919061360d565b6105c7565b005b34801561022057600080fd5b506102296114a8565b005b34801561023757600080fd5b50610240611530565b60405161024d91906139e6565b60405180910390f35b34801561026257600080fd5b5061027d600480360381019061027891906134f7565b611559565b005b34801561028b57600080fd5b506102a660048036038101906102a191906135be565b611694565b005b3480156102b457600080fd5b506102cf60048036038101906102ca9190613670565b6128e9565b6040516102dc9190613a83565b60405180910390f35b3480156102f157600080fd5b5061030c60048036038101906103079190613699565b61290d565b005b34801561031a57600080fd5b5061033560048036038101906103309190613533565b612bc7565b6040516103429190613a61565b60405180910390f35b34801561035757600080fd5b50610372600480360381019061036d9190613699565b612d92565b005b34801561038057600080fd5b5061039b60048036038101906103969190613670565b612fbb565b005b3480156103a957600080fd5b506103c460048036038101906103bf9190613440565b6131d1565b005b600560205282600052604060002060205281600052604060002081815481106103ee57600080fd5b906000526020600020906006020160009250925050508060000154908060010160009054906101000a900473ffffffffffffffffffffffffffffffffffffffff16908060010160149054906101000a900460ff16908060020154908060030154908060040154908060050154905087565b6003602052816000526040600020602052806000526040600020600091509150505481565b60045481565b61050d34600360003373ffffffffffffffffffffffffffffffffffffffff1673ffffffffffffffffffffffffffffffffffffffff16815260200190815260200160002060007f45544800000000000000000000000000000000000000000000000000000000008152602001908152602001600020546132c990919063ffffffff16565b600360003373ffffffffffffffffffffffffffffffffffffffff1673ffffffffffffffffffffffffffffffffffffffff16815260200190815260200160002060007f4554480000000000000000000000000000000000000000000000000000000000815260200190815260200160002081905550565b60016020528060005260406000206000915090508060000154908060010160009054906101000a900473ffffffffffffffffffffffffffffffffffffffff16905082565b60006001811115610601577f4e487b7100000000000000000000000000000000000000000000000000000000600052602160045260246000fd5b84600181111561063a577f4e487b7100000000000000000000000000000000000000000000000000000000600052602160045260246000fd5b14156106d45761065381836132df90919063ffffffff16565b600360003373ffffffffffffffffffffffffffffffffffffffff1673ffffffffffffffffffffffffffffffffffffffff16815260200190815260200160002060007f455448000000000000000000000000000000000000000000000000000000000081526020019081526020016000205410156106cf57600080fd5b6107ab565b60018081111561070d577f4e487b7100000000000000000000000000000000000000000000000000000000600052602160045260246000fd5b846001811115610746577f4e487b7100000000000000000000000000000000000000000000000000000000600052602160045260246000fd5b14156107aa5781600360003373ffffffffffffffffffffffffffffffffffffffff1673ffffffffffffffffffffffffffffffffffffffff16815260200190815260200160002060008581526020019081526020016000205410156107a957600080fd5b5b5b60006005600085815260200190815260200160002060008660018111156107fb577f4e487b7100000000000000000000000000000000000000000000000000000000600052602160045260246000fd5b81526020019081526020016000209050806040518060e0016040528060045481526020013373ffffffffffffffffffffffffffffffffffffffff168152602001876001811115610874577f4e487b7100000000000000000000000000000000000000000000000000000000600052602160045260246000fd5b8152602001868152602001858152602001848152602001600081525090806001815401808255809150506001900390600052602060002090600602016000909190919091506000820151816000015560208201518160010160006101000a81548173ffffffffffffffffffffffffffffffffffffffff021916908373ffffffffffffffffffffffffffffffffffffffff16021790555060408201518160010160146101000a81548160ff0219169083600181111561095b577f4e487b7100000000000000000000000000000000000000000000000000000000600052602160045260246000fd5b0217905550606082015181600201556080820151816003015560a0820151816004015560c08201518160050155505060008082805490501161099e5760006109b0565b600182805490506109af9190613cf6565b5b9050600060018111156109ec577f4e487b7100000000000000000000000000000000000000000000000000000000600052602160045260246000fd5b866001811115610a25577f4e487b7100000000000000000000000000000000000000000000000000000000600052602160045260246000fd5b1415610f1f575b6000811115610f1a57818181548110610a6e577f4e487b7100000000000000000000000000000000000000000000000000000000600052603260045260246000fd5b90600052602060002090600602016004015482600183610a8e9190613cf6565b81548110610ac5577f4e487b7100000000000000000000000000000000000000000000000000000000600052603260045260246000fd5b9060005260206000209060060201600401541115610ae257610f1a565b600082600183610af29190613cf6565b81548110610b29577f4e487b7100000000000000000000000000000000000000000000000000000000600052603260045260246000fd5b90600052602060002090600602016040518060e0016040529081600082015481526020016001820160009054906101000a900473ffffffffffffffffffffffffffffffffffffffff1673ffffffffffffffffffffffffffffffffffffffff1673ffffffffffffffffffffffffffffffffffffffff1681526020016001820160149054906101000a900460ff166001811115610bed577f4e487b7100000000000000000000000000000000000000000000000000000000600052602160045260246000fd5b6001811115610c25577f4e487b7100000000000000000000000000000000000000000000000000000000600052602160045260246000fd5b81526020016002820154815260200160038201548152602001600482015481526020016005820154815250509050828281548110610c8c577f4e487b7100000000000000000000000000000000000000000000000000000000600052603260045260246000fd5b906000526020600020906006020183600184610ca89190613cf6565b81548110610cdf577f4e487b7100000000000000000000000000000000000000000000000000000000600052603260045260246000fd5b9060005260206000209060060201600082015481600001556001820160009054906101000a900473ffffffffffffffffffffffffffffffffffffffff168160010160006101000a81548173ffffffffffffffffffffffffffffffffffffffff021916908373ffffffffffffffffffffffffffffffffffffffff1602179055506001820160149054906101000a900460ff168160010160146101000a81548160ff02191690836001811115610dbc577f4e487b7100000000000000000000000000000000000000000000000000000000600052602160045260246000fd5b02179055506002820154816002015560038201548160030155600482015481600401556005820154816005015590505080838381548110610e26577f4e487b7100000000000000000000000000000000000000000000000000000000600052603260045260246000fd5b90600052602060002090600602016000820151816000015560208201518160010160006101000a81548173ffffffffffffffffffffffffffffffffffffffff021916908373ffffffffffffffffffffffffffffffffffffffff16021790555060408201518160010160146101000a81548160ff02191690836001811115610ed6577f4e487b7100000000000000000000000000000000000000000000000000000000600052602160045260246000fd5b0217905550606082015181600201556080820151816003015560a0820151816004015560c082015181600501559050508180610f1190613da1565b92505050610a2c565b611488565b600180811115610f58577f4e487b7100000000000000000000000000000000000000000000000000000000600052602160045260246000fd5b866001811115610f91577f4e487b7100000000000000000000000000000000000000000000000000000000600052602160045260246000fd5b1415611487575b600081111561148657818181548110610fda577f4e487b7100000000000000000000000000000000000000000000000000000000600052603260045260246000fd5b90600052602060002090600602016004015482600183610ffa9190613cf6565b81548110611031577f4e487b7100000000000000000000000000000000000000000000000000000000600052603260045260246000fd5b906000526020600020906006020160040154101561104e57611486565b60008260018361105e9190613cf6565b81548110611095577f4e487b7100000000000000000000000000000000000000000000000000000000600052603260045260246000fd5b90600052602060002090600602016040518060e0016040529081600082015481526020016001820160009054906101000a900473ffffffffffffffffffffffffffffffffffffffff1673ffffffffffffffffffffffffffffffffffffffff1673ffffffffffffffffffffffffffffffffffffffff1681526020016001820160149054906101000a900460ff166001811115611159577f4e487b7100000000000000000000000000000000000000000000000000000000600052602160045260246000fd5b6001811115611191577f4e487b7100000000000000000000000000000000000000000000000000000000600052602160045260246000fd5b815260200160028201548152602001600382015481526020016004820154815260200160058201548152505090508282815481106111f8577f4e487b7100000000000000000000000000000000000000000000000000000000600052603260045260246000fd5b9060005260206000209060060201836001846112149190613cf6565b8154811061124b577f4e487b7100000000000000000000000000000000000000000000000000000000600052603260045260246000fd5b9060005260206000209060060201600082015481600001556001820160009054906101000a900473ffffffffffffffffffffffffffffffffffffffff168160010160006101000a81548173ffffffffffffffffffffffffffffffffffffffff021916908373ffffffffffffffffffffffffffffffffffffffff1602179055506001820160149054906101000a900460ff168160010160146101000a81548160ff02191690836001811115611328577f4e487b7100000000000000000000000000000000000000000000000000000000600052602160045260246000fd5b02179055506002820154816002015560038201548160030155600482015481600401556005820154816005015590505080838381548110611392577f4e487b7100000000000000000000000000000000000000000000000000000000600052603260045260246000fd5b90600052602060002090600602016000820151816000015560208201518160010160006101000a81548173ffffffffffffffffffffffffffffffffffffffff021916908373ffffffffffffffffffffffffffffffffffffffff16021790555060408201518160010160146101000a81548160ff02191690836001811115611442577f4e487b7100000000000000000000000000000000000000000000000000000000600052602160045260246000fd5b0217905550606082015181600201556080820151816003015560a0820151816004015560c08201518160050155905050818061147d90613da1565b92505050610f98565b5b5b6004600081548092919061149b90613dcb565b9190505550505050505050565b6114b06132f5565b73ffffffffffffffffffffffffffffffffffffffff166114ce611530565b73ffffffffffffffffffffffffffffffffffffffff1614611524576040517f08c379a000000000000000000000000000000000000000000000000000000000815260040161151b90613b27565b60405180910390fd5b61152e60006132fd565b565b60008060009054906101000a900473ffffffffffffffffffffffffffffffffffffffff16905090565b6115616132f5565b73ffffffffffffffffffffffffffffffffffffffff1661157f611530565b73ffffffffffffffffffffffffffffffffffffffff16146115d5576040517f08c379a00000000000000000000000000000000000000000000000000000000081526004016115cc90613b27565b60405180910390fd5b60405180604001604052808381526020018273ffffffffffffffffffffffffffffffffffffffff16815250600160008481526020019081526020016000206000820151816000015560208201518160010160006101000a81548173ffffffffffffffffffffffffffffffffffffffff021916908373ffffffffffffffffffffffffffffffffffffffff16021790555090505060028290806001815401808255809150506001900390600052602060002001600090919091909150555050565b60006001808111156116cf577f4e487b7100000000000000000000000000000000000000000000000000000000600052602160045260246000fd5b846001811115611708577f4e487b7100000000000000000000000000000000000000000000000000000000600052602160045260246000fd5b14156117a25781600360003373ffffffffffffffffffffffffffffffffffffffff1673ffffffffffffffffffffffffffffffffffffffff16815260200190815260200160002060008581526020019081526020016000205410156117a1576040517f08c379a000000000000000000000000000000000000000000000000000000000815260040161179890613ae7565b60405180910390fd5b5b600060018111156117dc577f4e487b7100000000000000000000000000000000000000000000000000000000600052602160045260246000fd5b846001811115611815577f4e487b7100000000000000000000000000000000000000000000000000000000600052602160045260246000fd5b14156118245760019050611829565b600090505b6000600560008581526020019081526020016000206000866001811115611879577f4e487b7100000000000000000000000000000000000000000000000000000000600052602160045260246000fd5b815260200190815260200160002090506000805b82805490508110801561189f57508482105b156125b15760006118b983876133c190919063ffffffff16565b905060006119648584815481106118f9577f4e487b7100000000000000000000000000000000000000000000000000000000600052603260045260246000fd5b906000526020600020906006020160050154868581548110611944577f4e487b7100000000000000000000000000000000000000000000000000000000600052603260045260246000fd5b9060005260206000209060060201600301546133c190919063ffffffff16565b90506000828211156119785782905061197c565b8190505b61198f81866132c990919063ffffffff16565b94506119ee818786815481106119ce577f4e487b7100000000000000000000000000000000000000000000000000000000600052603260045260246000fd5b9060005260206000209060060201600501546132c990919063ffffffff16565b868581548110611a27577f4e487b7100000000000000000000000000000000000000000000000000000000600052603260045260246000fd5b9060005260206000209060060201600501819055506000611a9b878681548110611a7a577f4e487b7100000000000000000000000000000000000000000000000000000000600052603260045260246000fd5b906000526020600020906006020160040154836132df90919063ffffffff16565b905060006001811115611ad7577f4e487b7100000000000000000000000000000000000000000000000000000000600052602160045260246000fd5b8b6001811115611b10577f4e487b7100000000000000000000000000000000000000000000000000000000600052602160045260246000fd5b141561205c5780600360003373ffffffffffffffffffffffffffffffffffffffff1673ffffffffffffffffffffffffffffffffffffffff16815260200190815260200160002060007f45544800000000000000000000000000000000000000000000000000000000008152602001908152602001600020541015611b9357600080fd5b611bf682600360003373ffffffffffffffffffffffffffffffffffffffff1673ffffffffffffffffffffffffffffffffffffffff16815260200190815260200160002060008d8152602001908152602001600020546132c990919063ffffffff16565b600360003373ffffffffffffffffffffffffffffffffffffffff1673ffffffffffffffffffffffffffffffffffffffff16815260200190815260200160002060008c815260200190815260200160002081905550611ccd81600360003373ffffffffffffffffffffffffffffffffffffffff1673ffffffffffffffffffffffffffffffffffffffff16815260200190815260200160002060007f45544800000000000000000000000000000000000000000000000000000000008152602001908152602001600020546133c190919063ffffffff16565b600360003373ffffffffffffffffffffffffffffffffffffffff1673ffffffffffffffffffffffffffffffffffffffff16815260200190815260200160002060007f4554480000000000000000000000000000000000000000000000000000000000815260200190815260200160002081905550611e0e82600360008a8981548110611d82577f4e487b7100000000000000000000000000000000000000000000000000000000600052603260045260246000fd5b906000526020600020906006020160010160009054906101000a900473ffffffffffffffffffffffffffffffffffffffff1673ffffffffffffffffffffffffffffffffffffffff1673ffffffffffffffffffffffffffffffffffffffff16815260200190815260200160002060008d8152602001908152602001600020546133c190919063ffffffff16565b60036000898881548110611e4b577f4e487b7100000000000000000000000000000000000000000000000000000000600052603260045260246000fd5b906000526020600020906006020160010160009054906101000a900473ffffffffffffffffffffffffffffffffffffffff1673ffffffffffffffffffffffffffffffffffffffff1673ffffffffffffffffffffffffffffffffffffffff16815260200190815260200160002060008c815260200190815260200160002081905550611f9981600360008a8981548110611f0d577f4e487b7100000000000000000000000000000000000000000000000000000000600052603260045260246000fd5b906000526020600020906006020160010160009054906101000a900473ffffffffffffffffffffffffffffffffffffffff1673ffffffffffffffffffffffffffffffffffffffff1673ffffffffffffffffffffffffffffffffffffffff16815260200190815260200160002060008d8152602001908152602001600020546132c990919063ffffffff16565b60036000898881548110611fd6577f4e487b7100000000000000000000000000000000000000000000000000000000600052603260045260246000fd5b906000526020600020906006020160010160009054906101000a900473ffffffffffffffffffffffffffffffffffffffff1673ffffffffffffffffffffffffffffffffffffffff1673ffffffffffffffffffffffffffffffffffffffff16815260200190815260200160002060008c81526020019081526020016000208190555061259a565b600180811115612095577f4e487b7100000000000000000000000000000000000000000000000000000000600052602160045260246000fd5b8b60018111156120ce577f4e487b7100000000000000000000000000000000000000000000000000000000600052602160045260246000fd5b14156125995761213782600360003373ffffffffffffffffffffffffffffffffffffffff1673ffffffffffffffffffffffffffffffffffffffff16815260200190815260200160002060008d8152602001908152602001600020546133c190919063ffffffff16565b600360003373ffffffffffffffffffffffffffffffffffffffff1673ffffffffffffffffffffffffffffffffffffffff16815260200190815260200160002060008c81526020019081526020016000208190555061220e81600360003373ffffffffffffffffffffffffffffffffffffffff1673ffffffffffffffffffffffffffffffffffffffff16815260200190815260200160002060007f45544800000000000000000000000000000000000000000000000000000000008152602001908152602001600020546132c990919063ffffffff16565b600360003373ffffffffffffffffffffffffffffffffffffffff1673ffffffffffffffffffffffffffffffffffffffff16815260200190815260200160002060007f455448000000000000000000000000000000000000000000000000000000000081526020019081526020016000208190555061234f82600360008a89815481106122c3577f4e487b7100000000000000000000000000000000000000000000000000000000600052603260045260246000fd5b906000526020600020906006020160010160009054906101000a900473ffffffffffffffffffffffffffffffffffffffff1673ffffffffffffffffffffffffffffffffffffffff1673ffffffffffffffffffffffffffffffffffffffff16815260200190815260200160002060008d8152602001908152602001600020546132c990919063ffffffff16565b6003600089888154811061238c577f4e487b7100000000000000000000000000000000000000000000000000000000600052603260045260246000fd5b906000526020600020906006020160010160009054906101000a900473ffffffffffffffffffffffffffffffffffffffff1673ffffffffffffffffffffffffffffffffffffffff1673ffffffffffffffffffffffffffffffffffffffff16815260200190815260200160002060008c8152602001908152602001600020819055506124da81600360008a898154811061244e577f4e487b7100000000000000000000000000000000000000000000000000000000600052603260045260246000fd5b906000526020600020906006020160010160009054906101000a900473ffffffffffffffffffffffffffffffffffffffff1673ffffffffffffffffffffffffffffffffffffffff1673ffffffffffffffffffffffffffffffffffffffff16815260200190815260200160002060008d8152602001908152602001600020546133c190919063ffffffff16565b60036000898881548110612517577f4e487b7100000000000000000000000000000000000000000000000000000000600052603260045260246000fd5b906000526020600020906006020160010160009054906101000a900473ffffffffffffffffffffffffffffffffffffffff1673ffffffffffffffffffffffffffffffffffffffff1673ffffffffffffffffffffffffffffffffffffffff16815260200190815260200160002060008c8152602001908152602001600020819055505b5b5050505080806125a990613dcb565b91505061188d565b505b6000828054905011801561265c5750816000815481106125fc577f4e487b7100000000000000000000000000000000000000000000000000000000600052603260045260246000fd5b90600052602060002090600602016003015482600081548110612648577f4e487b7100000000000000000000000000000000000000000000000000000000600052603260045260246000fd5b906000526020600020906006020160050154145b156128e15760005b600183805490506126759190613cf6565b811015612828578260018261268a9190613c46565b815481106126c1577f4e487b7100000000000000000000000000000000000000000000000000000000600052603260045260246000fd5b9060005260206000209060060201838281548110612708577f4e487b7100000000000000000000000000000000000000000000000000000000600052603260045260246000fd5b9060005260206000209060060201600082015481600001556001820160009054906101000a900473ffffffffffffffffffffffffffffffffffffffff168160010160006101000a81548173ffffffffffffffffffffffffffffffffffffffff021916908373ffffffffffffffffffffffffffffffffffffffff1602179055506001820160149054906101000a900460ff168160010160146101000a81548160ff021916908360018111156127e5577f4e487b7100000000000000000000000000000000000000000000000000000000600052602160045260246000fd5b021790555060028201548160020155600382015481600301556004820154816004015560058201548160050155905050808061282090613dcb565b915050612664565b5081805480612860577f4e487b7100000000000000000000000000000000000000000000000000000000600052603160045260246000fd5b60019003818190600052602060002090600602016000808201600090556001820160006101000a81549073ffffffffffffffffffffffffffffffffffffffff02191690556001820160146101000a81549060ff02191690556002820160009055600382016000905560048201600090556005820160009055505090556125b3565b505050505050565b600281815481106128f957600080fd5b906000526020600020016000915090505481565b80600073ffffffffffffffffffffffffffffffffffffffff166001600083815260200190815260200160002060010160009054906101000a900473ffffffffffffffffffffffffffffffffffffffff1673ffffffffffffffffffffffffffffffffffffffff1614156129b4576040517f08c379a00000000000000000000000000000000000000000000000000000000081526004016129ab90613b47565b60405180910390fd5b82600360003373ffffffffffffffffffffffffffffffffffffffff1673ffffffffffffffffffffffffffffffffffffffff1681526020019081526020016000206000848152602001908152602001600020541015612a47576040517f08c379a0000000000000000000000000000000000000000000000000000000008152600401612a3e90613b07565b60405180910390fd5b612aaa83600360003373ffffffffffffffffffffffffffffffffffffffff1673ffffffffffffffffffffffffffffffffffffffff1681526020019081526020016000206000858152602001908152602001600020546133c190919063ffffffff16565b600360003373ffffffffffffffffffffffffffffffffffffffff1673ffffffffffffffffffffffffffffffffffffffff1681526020019081526020016000206000848152602001908152602001600020819055506001600083815260200190815260200160002060010160009054906101000a900473ffffffffffffffffffffffffffffffffffffffff1673ffffffffffffffffffffffffffffffffffffffff1663a9059cbb33856040518363ffffffff1660e01b8152600401612b6f929190613a38565b602060405180830381600087803b158015612b8957600080fd5b505af1158015612b9d573d6000803e3d6000fd5b505050506040513d601f19601f82011682018060405250810190612bc191906134a5565b50505050565b6060600560008481526020019081526020016000206000836001811115612c17577f4e487b7100000000000000000000000000000000000000000000000000000000600052602160045260246000fd5b8152602001908152602001600020805480602002602001604051908101604052809291908181526020016000905b82821015612d8657838290600052602060002090600602016040518060e0016040529081600082015481526020016001820160009054906101000a900473ffffffffffffffffffffffffffffffffffffffff1673ffffffffffffffffffffffffffffffffffffffff1673ffffffffffffffffffffffffffffffffffffffff1681526020016001820160149054906101000a900460ff166001811115612d13577f4e487b7100000000000000000000000000000000000000000000000000000000600052602160045260246000fd5b6001811115612d4b577f4e487b7100000000000000000000000000000000000000000000000000000000600052602160045260246000fd5b815260200160028201548152602001600382015481526020016004820154815260200160058201548152505081526020019060010190612c45565b50505050905092915050565b80600073ffffffffffffffffffffffffffffffffffffffff166001600083815260200190815260200160002060010160009054906101000a900473ffffffffffffffffffffffffffffffffffffffff1673ffffffffffffffffffffffffffffffffffffffff161415612e39576040517f08c379a0000000000000000000000000000000000000000000000000000000008152600401612e3090613b47565b60405180910390fd5b6001600083815260200190815260200160002060010160009054906101000a900473ffffffffffffffffffffffffffffffffffffffff1673ffffffffffffffffffffffffffffffffffffffff166323b872dd3330866040518463ffffffff1660e01b8152600401612eac93929190613a01565b602060405180830381600087803b158015612ec657600080fd5b505af1158015612eda573d6000803e3d6000fd5b505050506040513d601f19601f82011682018060405250810190612efe91906134a5565b50612f6283600360003373ffffffffffffffffffffffffffffffffffffffff1673ffffffffffffffffffffffffffffffffffffffff1681526020019081526020016000206000858152602001908152602001600020546132c990919063ffffffff16565b600360003373ffffffffffffffffffffffffffffffffffffffff1673ffffffffffffffffffffffffffffffffffffffff168152602001908152602001600020600084815260200190815260200160002081905550505050565b80600360003373ffffffffffffffffffffffffffffffffffffffff1673ffffffffffffffffffffffffffffffffffffffff16815260200190815260200160002060007f4554480000000000000000000000000000000000000000000000000000000000815260200190815260200160002054101561306e576040517f08c379a000000000000000000000000000000000000000000000000000000000815260040161306590613ae7565b60405180910390fd5b6130f181600360003373ffffffffffffffffffffffffffffffffffffffff1673ffffffffffffffffffffffffffffffffffffffff16815260200190815260200160002060007f45544800000000000000000000000000000000000000000000000000000000008152602001908152602001600020546133c190919063ffffffff16565b600360003373ffffffffffffffffffffffffffffffffffffffff1673ffffffffffffffffffffffffffffffffffffffff16815260200190815260200160002060007f45544800000000000000000000000000000000000000000000000000000000008152602001908152602001600020819055503373ffffffffffffffffffffffffffffffffffffffff1681604051613189906139d1565b60006040518083038185875af1925050503d80600081146131c6576040519150601f19603f3d011682016040523d82523d6000602084013e6131cb565b606091505b50505050565b6131d96132f5565b73ffffffffffffffffffffffffffffffffffffffff166131f7611530565b73ffffffffffffffffffffffffffffffffffffffff161461324d576040517f08c379a000000000000000000000000000000000000000000000000000000000815260040161324490613b27565b60405180910390fd5b600073ffffffffffffffffffffffffffffffffffffffff168173ffffffffffffffffffffffffffffffffffffffff1614156132bd576040517f08c379a00000000000000000000000000000000000000000000000000000000081526004016132b490613ac7565b60405180910390fd5b6132c6816132fd565b50565b600081836132d79190613c46565b905092915050565b600081836132ed9190613c9c565b905092915050565b600033905090565b60008060009054906101000a900473ffffffffffffffffffffffffffffffffffffffff169050816000806101000a81548173ffffffffffffffffffffffffffffffffffffffff021916908373ffffffffffffffffffffffffffffffffffffffff1602179055508173ffffffffffffffffffffffffffffffffffffffff168173ffffffffffffffffffffffffffffffffffffffff167f8be0079c531659141344cd1fd0a4f28419497f9722a3daafe3b4186f6b6457e060405160405180910390a35050565b600081836133cf9190613cf6565b905092915050565b6000813590506133e681613e86565b92915050565b6000815190506133fb81613e9d565b92915050565b60008135905061341081613eb4565b92915050565b60008135905061342581613ecb565b92915050565b60008135905061343a81613edb565b92915050565b60006020828403121561345257600080fd5b6000613460848285016133d7565b91505092915050565b6000806040838503121561347c57600080fd5b600061348a858286016133d7565b925050602061349b85828601613401565b9150509250929050565b6000602082840312156134b757600080fd5b60006134c5848285016133ec565b91505092915050565b6000602082840312156134e057600080fd5b60006134ee84828501613401565b91505092915050565b6000806040838503121561350a57600080fd5b600061351885828601613401565b9250506020613529858286016133d7565b9150509250929050565b6000806040838503121561354657600080fd5b600061355485828601613401565b925050602061356585828601613416565b9150509250929050565b60008060006060848603121561358457600080fd5b600061359286828701613401565b93505060206135a38682870161342b565b92505060406135b48682870161342b565b9150509250925092565b6000806000606084860312156135d357600080fd5b60006135e186828701613416565b93505060206135f286828701613401565b92505060406136038682870161342b565b9150509250925092565b6000806000806080858703121561362357600080fd5b600061363187828801613416565b945050602061364287828801613401565b93505060406136538782880161342b565b92505060606136648782880161342b565b91505092959194509250565b60006020828403121561368257600080fd5b60006136908482850161342b565b91505092915050565b600080604083850312156136ac57600080fd5b60006136ba8582860161342b565b92505060206136cb85828601613401565b9150509250929050565b60006136e18383613925565b60e08301905092915050565b6136f681613d2a565b82525050565b61370581613d2a565b82525050565b600061371682613c01565b6137208185613c19565b935061372b83613bf1565b8060005b8381101561375c57815161374388826136d5565b975061374e83613c0c565b92505060018101905061372f565b5085935050505092915050565b61377281613d48565b82525050565b61378181613d48565b82525050565b61379081613d8f565b82525050565b61379f81613d8f565b82525050565b60006137b2602683613c35565b91507f4f776e61626c653a206e6577206f776e657220697320746865207a65726f206160008301527f64647265737300000000000000000000000000000000000000000000000000006020830152604082019050919050565b6000613818601283613c35565b91507f496e7375666669656e742062616c616e636500000000000000000000000000006000830152602082019050919050565b6000613858601683613c35565b91507f42616c616e6365206e6f7420737566666963656e7420000000000000000000006000830152602082019050919050565b6000613898602083613c35565b91507f4f776e61626c653a2063616c6c6572206973206e6f7420746865206f776e65726000830152602082019050919050565b60006138d8600083613c2a565b9150600082019050919050565b60006138f2601483613c35565b91507f546f6b656e20646f6573206e6f742065786974730000000000000000000000006000830152602082019050919050565b60e08201600082015161393b60008501826139b3565b50602082015161394e60208501826136ed565b5060408201516139616040850182613787565b5060608201516139746060850182613769565b50608082015161398760808501826139b3565b5060a082015161399a60a08501826139b3565b5060c08201516139ad60c08501826139b3565b50505050565b6139bc81613d85565b82525050565b6139cb81613d85565b82525050565b60006139dc826138cb565b9150819050919050565b60006020820190506139fb60008301846136fc565b92915050565b6000606082019050613a1660008301866136fc565b613a2360208301856136fc565b613a3060408301846139c2565b949350505050565b6000604082019050613a4d60008301856136fc565b613a5a60208301846139c2565b9392505050565b60006020820190508181036000830152613a7b818461370b565b905092915050565b6000602082019050613a986000830184613778565b92915050565b6000604082019050613ab36000830185613778565b613ac060208301846136fc565b9392505050565b60006020820190508181036000830152613ae0816137a5565b9050919050565b60006020820190508181036000830152613b008161380b565b9050919050565b60006020820190508181036000830152613b208161384b565b9050919050565b60006020820190508181036000830152613b408161388b565b9050919050565b60006020820190508181036000830152613b60816138e5565b9050919050565b6000602082019050613b7c60008301846139c2565b92915050565b600060e082019050613b97600083018a6139c2565b613ba460208301896136fc565b613bb16040830188613796565b613bbe6060830187613778565b613bcb60808301866139c2565b613bd860a08301856139c2565b613be560c08301846139c2565b98975050505050505050565b6000819050602082019050919050565b600081519050919050565b6000602082019050919050565b600082825260208201905092915050565b600081905092915050565b600082825260208201905092915050565b6000613c5182613d85565b9150613c5c83613d85565b9250827fffffffffffffffffffffffffffffffffffffffffffffffffffffffffffffffff03821115613c9157613c90613e14565b5b828201905092915050565b6000613ca782613d85565b9150613cb283613d85565b9250817fffffffffffffffffffffffffffffffffffffffffffffffffffffffffffffffff0483118215151615613ceb57613cea613e14565b5b828202905092915050565b6000613d0182613d85565b9150613d0c83613d85565b925082821015613d1f57613d1e613e14565b5b828203905092915050565b6000613d3582613d65565b9050919050565b60008115159050919050565b6000819050919050565b6000819050613d6082613e72565b919050565b600073ffffffffffffffffffffffffffffffffffffffff82169050919050565b6000819050919050565b6000613d9a82613d52565b9050919050565b6000613dac82613d85565b91506000821415613dc057613dbf613e14565b5b600182039050919050565b6000613dd682613d85565b91507fffffffffffffffffffffffffffffffffffffffffffffffffffffffffffffffff821415613e0957613e08613e14565b5b600182019050919050565b7f4e487b7100000000000000000000000000000000000000000000000000000000600052601160045260246000fd5b7f4e487b7100000000000000000000000000000000000000000000000000000000600052602160045260246000fd5b60028110613e8357613e82613e43565b5b50565b613e8f81613d2a565b8114613e9a57600080fd5b50565b613ea681613d3c565b8114613eb157600080fd5b50565b613ebd81613d48565b8114613ec857600080fd5b50565b60028110613ed857600080fd5b50565b613ee481613d85565b8114613eef57600080fd5b5056fea264697066735822122035cd41495c3b6ad662dba509acdfe61c5f6dddd6d2fe52c7147cd89a902c272064736f6c63430008000033",
  "immutableReferences": {},
  "source": "// SPDX-License-Identifier: MIT\npragma solidity >=0.6.0 <0.9.0;\npragma experimental ABIEncoderV2;\nimport \"./wallet.sol\";\n\ncontract Dex is Wallet {\n    using SafeMath for uint256;\n\n    enum Side {\n        BUY,\n        SELL\n    }\n\n    struct Order {\n        uint256 id;\n        address trader;\n        Side side;\n        bytes32 ticker;\n        uint256 amount;\n        uint256 price;\n        uint256 filled;\n    }\n\n    uint256 public nextOrderId = 0;\n\n    mapping(bytes32 => mapping(uint256 => Order[])) public orderBook;\n\n    function getOrderBook(bytes32 ticker, Side side)\n        public\n        view\n        returns (Order[] memory)\n    {\n        return orderBook[ticker][uint256(side)];\n    }\n\n    function createLimitOrder(\n        Side side,\n        bytes32 ticker,\n        uint256 amount,\n        uint256 price\n    ) public {\n        if (side == Side.BUY) {\n            require(balances[msg.sender][\"ETH\"] >= amount.mul(price));\n        } else if (side == Side.SELL) {\n            require(balances[msg.sender][ticker] >= amount);\n        }\n\n        Order[] storage orders = orderBook[ticker][uint(side)];\n        orders.push(\n            Order(nextOrderId, msg.sender, side, ticker, amount, price, 0)\n        );\n\n        uint i = orders.length > 0 ? orders.length - 1 : 0;\n\n        //Bubble sort\n        if (side == Side.BUY) {\n            while (i > 0) {\n                if (orders[i - 1].price > orders[i].price) {\n                    break;\n                }\n                Order memory orderToMove = orders[i - 1];\n                orders[i - 1] = orders[i];\n                orders[i] = orderToMove;\n                i--;\n            }\n        } else if (side == Side.SELL) {\n            while (i > 0) {\n                if (orders[i - 1].price < orders[i].price) {\n                    break;\n                }\n                Order memory orderToMove = orders[i - 1];\n                orders[i - 1] = orders[i];\n                orders[i] = orderToMove;\n                i--;\n            }\n        }\n        nextOrderId++;\n    }\n\n    function createMarketOrder(\n        Side side,\n        bytes32 ticker,\n        uint256 amount\n    ) public {\n        uint256 orderBookSide;\n        if (side == Side.SELL) {\n            require(\n                balances[msg.sender][ticker] >= amount,\n                \"Insuffient balance\"\n            );\n        }\n        if (side == Side.BUY) {\n            orderBookSide = 1;\n        } else {\n            orderBookSide = 0;\n        }\n        Order[] storage orders = orderBook[ticker][uint256(side)];\n\n        uint256 totalFilled = 0;\n\n        for (uint256 i = 0; i < orders.length && totalFilled < amount; i++) {\n            uint256 leftToFill = amount.sub(totalFilled);\n            uint256 availableToFill = orders[i].amount.sub(orders[i].filled);\n            uint256 filled = 0;\n            if (availableToFill > leftToFill) {\n                filled = leftToFill; //Fill the entire market order\n            } else {\n                filled = availableToFill; //Fill as much as is availale in order[i]\n            }\n\n            totalFilled = totalFilled.add(filled);\n            orders[i].filled = orders[i].filled.add(filled);\n            uint cost = filled.mul(orders[i].price);\n            if(side == Side.BUY){\n                //Verify that the buyer has enough ETH to cover the purchase (require)\n                require(balances[msg.sender][\"ETH\"] >= cost);\n                balances[msg.sender][ticker] = balances[msg.sender][ticker].add(filled);\n                balances[msg.sender][\"ETH\"] =  balances[msg.sender][\"ETH\"].sub(cost);\n\n                balances[orders[i].trader][ticker] = balances[orders[i].trader][ticker].sub(filled);\n                balances[orders[i].trader][ticker] = balances[orders[i].trader][ticker].add(cost);\n\n            } else if(side == Side.SELL){\n                balances[msg.sender][ticker] = balances[msg.sender][ticker].sub(filled);\n                balances[msg.sender][\"ETH\"] = balances[msg.sender][\"ETH\"].add(cost);\n\n                balances[orders[i].trader][ticker] = balances[orders[i].trader][ticker].add(filled);\n                balances[orders[i].trader][ticker] = balances[orders[i].trader][ticker].sub(cost);\n            }\n        }\n\n        //Loop through the orderbook and remove 100% filled orders\n        while(orders.length > 0 && orders[0].filled == orders[0].amount){\n            //Remove the top element in the orders array by overwriting every element\n            //with the next element in the order list\n            for(uint256 i = 0; i < orders.length - 1; i++){\n                orders[i] = orders[i+1];\n            }\n            orders.pop();\n        }\n    }\n}\n",
  "sourcePath": "/Volumes/Default/ETH201/dex/contracts/dex.sol",
  "compiler": {
    "name": "solc",
    "version": "0.8.0+commit.c7dfd78e.Emscripten.clang"
  },
  "schemaVersion": "3.4.1",
  "updatedAt": "2021-08-05T00:07:28.432Z",
  "networkType": "ethereum",
  "devdoc": {
    "kind": "dev",
    "methods": {
      "owner()": {
        "details": "Returns the address of the current owner."
      },
      "renounceOwnership()": {
        "details": "Leaves the contract without owner. It will not be possible to call `onlyOwner` functions anymore. Can only be called by the current owner. NOTE: Renouncing ownership will leave the contract without an owner, thereby removing any functionality that is only available to the owner."
      },
      "transferOwnership(address)": {
        "details": "Transfers ownership of the contract to a new account (`newOwner`). Can only be called by the current owner."
      }
    },
    "version": 1
  },
  "userdoc": {
    "kind": "user",
    "methods": {},
    "version": 1
  }
}